:020000040800F2
:10000000FCFF0020C1150000B9150000B915000063
:10001000B9150000B9150000B9150000B9150000A8
:10002000B9150000B9150000B9150000B915000098
:10003000B9150000B9150000B9150000B915000088
:10004000B9150000B9150000B9150000B915000078
:10005000B9150000B9150000B9150000B915000068
:10006000B9150000B9150000B9150000B915000058
:10007000B9150000B9150000B9150000B915000048
:10008000B9150000B9150000B9150000B915000038
:10009000B9150000B9150000B9150000B915000028
:1000A000B9150000B9150000B9150000B915000018
:1000B000B9150000B9150000B9150000B915000008
:1000C000B9150000B9150000B9150000B9150000F8
:1000D000B9150000B9150000B9150000B9150000E8
:1000E000B9150000B9150000B9150000B9150000D8
:1000F000B9150000B9150000B9150000B9150000C8
:10010000B9150000B9150000B9150000B9150000B7
:10011000B9150000B9150000B9150000B9150000A7
:10012000B9150000B9150000B9150000B915000097
:10013000B9150000B9150000B9150000B915000087
:10014000B9150000B9150000B9150000B915000077
:1001500001480068704700BF2801002083B0CDF837
:1001600000E000F0FF031A09104603F00F021346E7
:1001700014E0194A02921FE0184A02921CE0184A41
:10018000029219E0174A029216E0174A029213E00F
:10019000164A029210E0164A02920DE00028E8D0BA
:1001A0000128E9D00228EAD00328EBD00428ECD0BB
:1001B0000528EDD00628EED0012212B29A40ADF803
:1001C000042002980A46BDF8041000F035F9DDF865
:1001D00000E003B0704700BF00080140000C014080
:1001E000001001400014014000180140001C0140B3
:1001F0000020014081B0CDF800E0012252B23E491A
:100200000A6000F268010B686FF0006103EA010206
:10021000144603F00061C90E0B4602F00041B1F133
:10022000004F02D135490A6801E035490A6804F4F3
:100230007021090C0E464FF6FF7104EA01010D46CC
:1002400004F44011B1F5401F0DD16FF0706102EA66
:1002500001010E462A490A686FF070610A40284978
:100260000A60324616E004F48011B1F5801F09D10E
:100270004FF00301B140C94302EA010141F070614E
:100280000A4607E0610D090105FA01F1C9430A4078
:1002900042F070622BB1610D090105FA01F10A43C8
:1002A000FFE704F00041B1F1004F02D113490A60A9
:1002B00001E013490A6040F2000A81464FEA8A01D0
:1002C00009EB01010968B1F1FF3F10D009F13401D8
:1002D0004FEA8A03C91809680A4609EB030109684D
:1002E00008461146FFF73AFF0AF1010AE6E7DDF892
:1002F00000E001B0704700BF000342421C00014013
:100300000400014081B0194900EA010108460022B9
:100310000EE0042022E0082020E010201EE0202033
:100320001CE040201AE0802018E040F2001015E0A8
:100330000F498842EDD00F498842ECD00E498842DF
:10034000EBD00E498842EAD00D498842E9D00D49E8
:100350008842E8D00C498842E7D010460B4909682A
:1003600041EA000209490A6001B0704700FCFFFF42
:1003700000080140000C0140001001400014014041
:1003800000180140001C01400020014018100240EC
:1003900082B0CDF800E0034619460191FFF7D8FE80
:1003A00040F2E83100FB01F201990A601F49097827
:1003B000C1F30311C8B21E4909180878C0B21A1D4A
:1003C0001968C140116019490988C1F3022188B236
:1003D000174909180878C0B203F20802191D096804
:1003E000C140116011490988C1F3C22188B2104986
:1003F00009180878C0B203F20C02191D0968C1403F
:1004000011600A490988C1F3813188B20949091884
:100410000978C8B203F2100203F20C010968B1FBBB
:10042000F0F11160DDF800E002B070470410024006
:10043000CC190000DC19000081B0CDF800E08CB2CE
:100440001546774B00EA03031E461846FFF75AFF8E
:10045000B4F1FF0F0CD1734B9D4203D14FF03333F6
:100460003360D9E0422D03D14FF044333360D3E001
:100470004FF6FF739C4214D16A4B9D4207D14FF057
:1004800033333360341D4FF033332360C4E0422DE7
:1004900007D14FF044333360341D4FF044332360B1
:1004A000BAE00021002005F001030BB100211DE09E
:1004B00005F0020333B105F4C0730BB1082100E06D
:1004C000042113E005F0040333B105F020030BB160
:1004D000042100E0002109E005F0080333B105F034
:1004E00020030BB10C2100E00821FFE74E4B05EA89
:1004F00003030BB1032009E005F400730BB10220E4
:1005000004E005F480630BB10120FFE705F00C0364
:100510000BB10143FFE704F0FF039BB2002B3BD07C
:10052000376800201FFA84F832462E4608282CD25D
:100530004FF0010303FA00F408EA0403A34222D1B6
:1005400085004FF00F03AB40DB4307EA030401FAD9
:1005500005F344EA03031D4606F48173B3F5817F76
:1005600005D102F214044FF001038340236006F02A
:100570008203822B05D102F210044FF00103834065
:1005800023602F46FFE7401CD0E717601FFA88F072
:100590000F463146164602E00F462946A0B2B0F19A
:1005A000FF0F39D9331DD3F800800022082A30D23A
:1005B00002F208044FF0010303FA04F400EA040312
:1005C000A34224D195004FF00F03AB40DB4308EA70
:1005D000030807FA05F348EA030801F48173B3F549
:1005E000817F07D106F2140502F208044FF00103DF
:1005F000A3402B6001F08203822B07D106F2100585
:1006000002F208044FF00103A3402B60FFE7521CE5
:10061000CCE7331DC3F80080DDF800E001B070477F
:1006200000FCFFFF140008000008080081B0ADF8CE
:1006300000100146BDF800000B68C3F3C01202B9F8
:10064000FAE70A1D106001B07047FFFF89B0CDF8CE
:1006500000E0834698B28C46BDF824100A9E04AC94
:10066000ADF80410ADF808002046FFF791FEBDF884
:100670000800BDF80410644CA34512D101256DB2E9
:10068000624C2560624D634C2560634D634C256070
:10069000634D644C2560644D644C2560079C039455
:1006A00056E0634CA34512D101256DB2614C256023
:1006B000614D584C2560614D584C2560604D594C3A
:1006C0002560604D594C2560069C039440E05E4CCB
:1006D000A34512D101256DB25C4C25605C4D4D4C9B
:1006E00025605C4D4D4C25605B4D4E4C25605B4D4F
:1006F0004E4C2560069C03942AE0594CA34512D128
:1007000001256DB2574C2560574D424C2560574D21
:10071000424C2560564D434C2560564D434C256058
:10072000069C039414E0544CA34511D101256DB2ED
:10073000524C2560524D374C2560524D374C256048
:10074000514D384C2560514D384C2560069C039422
:10075000ADF80410ADF808003046FFF74BFDBDF8CA
:100760000800BDF804100BF1100500242C600BF1FB
:1007700010052C680C432C600BF10C0500242C6038
:1007800018B140F4806080B2FFE70BF10C052C68D3
:1007900004432C600BF10C060125346865F34D34DD
:1007A00034600BF10C060125346865F3C304346032
:1007B0000BF10C060125346865F3820434600BF1FB
:1007C000140500242C60039D192465434FEA8C0412
:1007D000B5FBF4F76424B7FBF4F42601350964246F
:1007E0006C433C1B240104F232056424B5FBF4F491
:1007F00004F00F0446EA04040BF10805A4B22C60CF
:10080000DDF800E009B0704700380140380342428B
:10081000D50800002C010020351300000C01002039
:100820004D130000080100202D10000030010020B1
:1008300000440040C4034242B908000045100000D3
:100840005D1000001510000000480040C80342423F
:1008500035090000CD0F0000E50F0000FD0F00007E
:10086000004C0040CC034242F10800000911000096
:10087000211100007510000000500040D0034242DA
:10088000850900008D10000039110000F1100000F2
:1008900081B0CDF800E0019D2C4610B408B493B2AD
:1008A0008AB201460348FFF7D1FE02B0DDF800E04E
:1008B00001B070470038014081B0CDF800E081B24E
:1008C0000348FFF7B3FEDDF800E001B0704700BF5A
:1008D0000044004081B0CDF800E081B20348FFF74A
:1008E000A5FEDDF800E001B0704700BF0038014010
:1008F00081B0CDF800E081B20348FFF797FEDDF844
:1009000000E001B0704700BF004C004081B0CDF85E
:1009100000E0019D2C4610B408B493B28AB201469F
:100920000348FFF793FE02B0DDF800E001B0704726
:100930000044004081B0CDF800E081B20348FFF7E9
:1009400075FEDDF800E001B0704700BF00480040D0
:1009500081B0CDF800E0044A89B2FFF76DFDDDF803
:1009600000E001B0704700BF1400080081B0CDF86E
:1009700000E04FF0420289B2FFF75EFDDDF800E0D3
:1009800001B0704781B0CDF800E081B20348FFF7B5
:100990004DFEDDF800E001B0704700BF00500040A0
:1009A00081B0CDF800E0019D2C4610B408B493B29C
:1009B0008AB201460348FFF749FE02B0DDF800E0C5
:1009C00001B070470048004001490860704700BF0F
:1009D000A881224201490860704700BFA4812242D9
:1009E00001490860704700BF800121420149086049
:1009F000704700BFB001224201490860704700BF44
:100A00009C81214201490860704700BF9401214246
:100A100001490860704700BFA08122420149086077
:100A2000704700BF9881214201490860704700BFAC
:100A30009881214201490860704700BF9481224299
:100A400001490860704700BF98812242014908604F
:100A5000704700BF9C81214281B00168C1F38010C2
:100A600001B0704781B00168C1F3401001B0704718
:100A700081B00268C2F3401101B9FAE7011D0968AB
:100A800088B201B07047FFFF01490860704700BF9E
:100A9000A801224201490860704700BFB881224284
:100AA00001490860704700BF8C012242014908607B
:100AB000704700BFAC01224201490860704700BF87
:100AC000B081224201490860704700BFB0812242D4
:100AD00001490860704700BFB00122420149086027
:100AE000704700BFAC01224281B0CDF800E0094957
:100AF00002B440F2000340F2000240F20001FFF7AE
:100B0000C7FE01B0044A05490A600020DDF800E094
:100B100001B0704794180000D508000010010020B3
:100B200081B0CDF800E0094902B440F2000340F280
:100B3000000240F20001FFF7E9FE01B0044A054956
:100B40000A600020DDF800E001B0704700190000E5
:100B5000B90800001001002081B0CDF800E0017854
:100B6000CCB2A0B2034C2468A0470020DDF800E01E
:100B700001B070471001002081B0CDF800E00949B4
:100B800002B440F2000340F2000240F20001FFF71D
:100B9000BDFE01B0044A05490A600020DDF800E00E
:100BA00001B0704700190000B908000010010020D2
:100BB00081B0CDF800E0A9E0012905D140F2100193
:100BC0006548FFF7D3FE04E040F210016248FFF7EA
:100BD000BFFEBBE0012905D140F204015F48FFF7E9
:100BE000C5FE04E040F204015C48FFF7B1FEADE051
:100BF000012905D142F200015948FFF7B7FE04E090
:100C000042F200015648FFF7A3FE9FE0012905D1FB
:100C100040F200415148FFF7A9FE04E040F20041D4
:100C20004E48FFF795FE91E0012905D140F60001FD
:100C30004A48FFF79BFE04E040F600014748FFF7F3
:100C400087FE83E0012905D141F200014348FFF707
:100C50008DFE04E041F200014048FFF779FE75E0A7
:100C6000012905D140F201013B48FFF77FFE04E076
:100C700040F201013848FFF76BFE67E0012905D11A
:100C800040F200413648FFF771FE04E040F20041B7
:100C90003348FFF75DFE59E0012905D140F20021FC
:100CA0002F48FFF763FE04E040F200212C48FFF7D5
:100CB0004FFE4BE0012905D140F200112848FFF713
:100CC00055FE04E040F200112548FFF741FE3DE0EB
:100CD000012905D140F240012248FFF747FE04E018
:100CE00040F240011F48FFF733FE2FE0012905D1F4
:100CF00040F280011B48FFF739FE04E040F280011A
:100D00001848FFF725FE21E0012020E000283FF4ED
:100D100053AF01283FF45EAF02283FF469AF0328C8
:100D20003FF474AF04283FF47FAF05283FF48AAF47
:100D300006283FF495AF0728A0D00828ACD0092892
:100D4000B8D00A28C4D00B28D0D0DDE70020DDF8C9
:100D500000E001B0704700BF0008014000100140F2
:100D600000140140000C014081B0CDF800E0A9E082
:100D7000012905D140F220016548FFF7F7FD04E0A5
:100D800040F220016248FFF7E3FDBBE0012905D1F5
:100D900040F208015F48FFF7E9FD04E040F2080176
:100DA0005C48FFF7D5FDADE0012905D144F2000113
:100DB0005948FFF7DBFD04E044F200015648FFF715
:100DC000C7FD9FE0012905D140F200415148FFF7DE
:100DD000CDFD04E040F200414E48FFF7B9FD91E03F
:100DE000012905D140F600014A48FFF7BFFD04E0A4
:100DF00040F600014748FFF7ABFD83E0012905D12C
:100E000041F200014348FFF7B1FD04E041F2000167
:100E10004048FFF79DFD75E0012905D141F2000131
:100E20003D48FFF7A3FD04E041F200013A48FFF717
:100E30008FFD67E0012905D140F600013648FFF734
:100E400095FD04E040F600013348FFF781FD59E0CD
:100E5000012905D140F240012F48FFF787FD04E04A
:100E600040F240012C48FFF773FD4BE0012905D10A
:100E700040F220012848FFF779FD04E040F220010C
:100E80002548FFF765FD3DE0012905D140F240010D
:100E90002248FFF76BFD04E040F240011F48FFF7D6
:100EA00057FD2FE0012905D140F280011B48FFF7D3
:100EB0005DFD04E040F280011848FFF749FD21E0A4
:100EC000012020E000283FF453AF01283FF45EAF3B
:100ED00002283FF469AF03283FF474AF04283FF4BD
:100EE0007FAF05283FF48AAF06283FF495AF072867
:100EF000A0D00828ACD00928B8D00A28C4D00B2824
:100F0000D0D0DDE70020DDF800E001B0704700BF81
:100F1000000801400010014000140140000C014095
:100F200081B0CDF800E0094902B440F2000340F27C
:100F3000000240F20001FFF733FD01B0044A054909
:100F40000A600020DDF800E001B0704728180000BA
:100F5000350900001001002001490860704700BFFA
:100F60008801224201490860704700BF9001214278
:100F700001490860704700BFA8012242014908608A
:100F8000704700BFB481224202680B490A6000F238
:100F900008010A6809490A60011D0A6808490A60CF
:100FA00000F218010A6807490A6000F21C010A6889
:100FB00005490A60704700BF140100201801002095
:100FC0001C010020200100202401002081B0CDF868
:100FD00000E00348FFF74CFDDDF800E001B070478A
:100FE0000048004081B0CDF800E00348FFF73AFD2B
:100FF000DDF800E001B070470048004081B0CDF856
:1010000000E00348FFF728FDDDF800E001B070477D
:101010000048004081B0CDF800E00348FFF71CFD18
:10102000DDF800E001B070470044004081B0CDF829
:1010300000E00348FFF710FDDDF800E001B0704765
:101040000038014081B0CDF800E00348FFF710FD03
:10105000DDF800E001B070470044004081B0CDF8F9
:1010600000E00348FFF7FEFCDDF800E001B0704748
:101070000044004081B0CDF800E00348FFF7ECFCED
:10108000DDF800E001B07047004C004081B0CDF8C1
:1010900000E00348FFF7ECFCDDF800E001B070472A
:1010A0000050004081B0CDF800E00C48007868B9ED
:1010B0000B48012100F0DCF80A480068012100F02B
:1010C000D7F80948022100F0D3F803E007480221CD
:1010D00000F0CEF8DDF800E001B07047020100201A
:1010E000A800002004010020B3000020C10000205F
:1010F00081B0CDF800E00348FFF7AEFCDDF800E07A
:1011000001B070470050004081B0CDF800E00348C6
:10111000FFF7AEFCDDF800E001B07047004C004086
:1011200081B0CDF800E00348FFF79CFCDDF800E05B
:1011300001B07047004C004081B0CDF800E003489A
:10114000FFF790FCDDF800E001B070470050004070
:1011500081B0CDF800E011E00846FFF7E1FE16E0AF
:101160000846FFF709FD12E00846FFF7BDFC0EE058
:101170000846FFF7D5FC0AE0012008E00028EBD084
:101180000128EDD02028EFD03028F1D0F4E7DDF8A9
:1011900000E001B07047FFFF81B0CDF800E05FFADA
:1011A00081F95FFA82FA0FE05FFA8AF15FFA89F05B
:1011B000FFF7FEFC0DE05FFA8AF15FFA89F0FFF7B6
:1011C000D3FD06E0012004E00028EDD00128F2D094
:1011D000F8E7DDF800E001B07047FFFF82B0CDF81E
:1011E00000E0072801D902201CE000F0010400F013
:1011F0000201C9B249088DF8041000F00401C9B217
:1012000089088DF80510E0B2084C2468A0479DF8C5
:101210000400074C2468A0479DF80500054C24688D
:10122000A0470020DDF800E002B070471401002064
:101230001C0100202401002081B0CDF800E001282D
:1012400001D9012003E0044C2468A0470020DDF808
:1012500000E001B0704700BF1801002081B0CDF858
:1012600000E0FFF791FEDDF800E001B07047FFFFFE
:1012700083B0CDF800E0024610460D228DF808201C
:101280000A228DF809201FE0FFF766FC23E00278B0
:101290002AB10190FFF760FC0198401CF7E71AE0C3
:1012A00002782AB10190FFF757FC0198401CF7E73C
:1012B00002AA1046FFF750FC0DF109021046FFF795
:1012C0004BFC08E0062007E00029DDD00129DED034
:1012D0000229E5D0F6E70020DDF800E003B0704712
:1012E00081B0CDF800E00F480221FFF7C1FF0E48A2
:1012F0000221FFF7BDFF41F6FF27C0F2B70700BF8D
:1013000000BF7F1EFDD100BF00BF00BF0748022104
:10131000FFF7AEFF06480221FFF7AAFFDDF800E065
:1013200001B0704718000020550000205600002032
:101330008600002081B0CDF800E00348FFF798FB5D
:10134000DDF800E001B070470038014081B0CDF811
:1013500000E00348FFF786FBDDF800E001B07047CE
:101360000038014081B01548006840F00101134881
:101370000160134913480160104801681248014098
:101380000E4801600D4801686FF4802001400B4851
:1013900001600C4801686FF4FE00014009480160DB
:1013A000064801686FF0A0500140044801604FF00A
:1013B00000010648016001B0704700BF0010024004
:1013C0000000FFF004100240FFFFF6FE2C10024068
:1013D00081B0CDF800E01848FFF740FF49F6FF67FD
:1013E000C0F2240700BF00BF7F1EFDD100BF00BFB9
:1013F00000BF1249124801600020FFF71DFF0020C6
:10140000FFF7ECFE0F480221FFF732FF0E480221E2
:10141000FFF72EFF41F6FF27C0F2B70700BF00BF5E
:101420007F1EFDD100BF00BF00BFFFF759FFDDF8F1
:1014300000E001B0704700BF6C19000001010020FE
:101440000401002087000020A700002081B01CF8C4
:10145000019B0BF8019BBBEB0A0FF8D101B0704761
:1014600081B0CDF800E0002200210020FFF794FEBB
:10147000002201210020FFF78FFE00220221002020
:10148000FFF78AFE002206210020FFF785FE0022DA
:1014900007210020FFF780FE42F280512020FFF755
:1014A00057FE09480221FFF7E3FE44F67F77C0F2BA
:1014B00012077F1EFDD100BF00BF00BF00BF00BFED
:1014C000DDF800E001B070470000002081B0CDF8E9
:1014D00000E01E4C2468A0471D490870C4B2002CCF
:1014E0002FD01C4C2468A04719490870C0B22B2883
:1014F00007D10020FFF7A0FE17480221FFF7B8FE32
:101500001FE0134800782D2807D10120FFF794FE33
:1015100012480221FFF7ACFE13E00D4800786C285A
:1015200002D1FFF7DDFE0CE009480078A0F230019F
:101530000B480170C8B2FFF751FE0A490870FFF767
:10154000B1FDDDF800E001B0704700BF08010020E8
:10155000010100200C010020E0000020F10000202B
:10156000030100200201002081B04FF000094FF07C
:10157000000CBDEB0A0F04DCBDEB0B0F01DBD44606
:10158000EA464BF8049BBBEB0A0FFAD1BCEB0A0FFF
:1015900005DDE246D9F800B00BF1040BF1E701B02C
:1015A0007047FFFF81B002490248016001B07047F7
:1015B000401901002801002081B0FEE701B070470A
:1015C00000F00EF800F04CFAFFF7ECFF00F008FA1C
:1015D000FFF746FFFFF7FCFEFFF778FFFCE7FEE7AB
:1015E00081B0CDF800E0464A464B474C47494BF6A0
:1015F0008030814206D94648006840F002014448E4
:10160000016011E045F6C050814206D940480068AB
:1016100040F001013E48016006E03D4801686FF07E
:10162000070001403A480160FFF79CFE394803601B
:1016300039480460394802EA00013948016002F083
:10164000010040B119463648006800F00200002849
:1016500000D1F8E700E0194602F4803040B10B46B3
:101660002F48006800F40030002800D1F8E700E0BF
:101670000B4602F0805068B12948006840F0805164
:10168000274801602648006800F00050002800D17B
:10169000F8E7FFE702F0806078B12148006840F089
:1016A00080611F48016011461A461D48006800F01D
:1016B0000060002800D1F8E701E011461A4601F069
:1016C000807070B11648006840F080711448016065
:1016D00011461348006800F0007000B9F9E70A46A7
:1016E000FFE70C48006800F00C01900000F00C00CF
:1016F000814200D0F5E7DDF800E001B0704700BF9F
:101700008100010502841D0044060100401901000A
:1017100000200240041002402C100240FFFF0F0086
:10172000001002402A2A2A20496E697469616C6996
:101730007A696E672E2E2E202A2A2A002A2A205005
:1017400072657373202D20746F207475726E205330
:10175000687574646F776E204F4E2C206F72202B4B
:1017600020746F207475726E2053687574646F777F
:101770006E204F4646202A2A00002A2A20547572DD
:101780006E204F4E207468652064657369726564CD
:10179000206368616E6E656C202866726F6D203004
:1017A00020746F203729202A2A00002A2A20417518
:1017B00064696F416D70203420697320696E6974AB
:1017C00069616C697A6564202A2A00002A204368CE
:1017D000616E6E656C200020697320656E61626CBD
:1017E0006564202A002A2057726F6E672063686143
:1017F0006E6E656C2069732073656C6563746564D7
:1018000021202A002A2053687574646F776E204F58
:101810004646202A002A2053687574646F776E202C
:101820004F4E202A00FFFFFF380000003900000063
:10183000FFFFFFFF000000000000000000000000AC
:101840000000000000000000000000000000000098
:101850000000000000000000000000001808000068
:101860001800000000000000000000000000000060
:101870000000000000000000000000000000000068
:101880000000000000000000000000000000000058
:1018900030001408090000000A000000FFFFFFFFED
:1018A0000000000000000000000000000000000038
:1018B0000000000000000000000000000000000028
:1018C00000000000000000001808000018000000E0
:1018D0000000000000000000000000000000000008
:1018E00000000000000000000000000000000000F8
:1018F00000000000000000000000000004000000E4
:101900003500000036000000FFFFFFFF0000000070
:1019100000000000000000000000000000000000C7
:1019200000000000000000000000000000000000B7
:10193000000000001808000018000000000000006F
:101940000000000000000000000000000000000097
:101950000000000000000000000000000000000087
:10196000000000000000000008000008650F0000F3
:10197000590F00007D0F0000710F0000DD0A00000C
:10198000ED090000E1090000C9090000D5090000C7
:10199000110A00001D0A0000F9090000FFFFFFFF07
:1019A000FFFFFFFFFFFFFFFFFFFFFFFFFFFFFFFF47
:1019B000FFFFFFFFFFFFFFFFFFFFFFFFFFFFFFFF37
:1019C000FFFFFFFFFFFFFFFFFFFFFFFF0000000023
:1019D00001020304010203040607080902040608C1
:1019E00000B5DFF814B0DFF814A0DFF814C0FFF77B
:1019F0002DFD00BD704700BF000000200101002048
:101A000024170000FFFFFFFFFFFFFFFFFFFFFFFFA7
:101A1000FFFFFFFFFFFFFFFFFFFFFFFFFFFFFFFFD6
:101A2000FFFFFFFFFFFFFFFFFFFFFFFFFFFFFFFFC6
:101A3000FFFFFFFFFFFFFFFFFFFFFFFFFFFFFFFFB6
:101A4000FFFFFFFFFFFFFFFFFFFFFFFFFFFFFFFFA6
:101A5000FFFFFFFFFFFFFFFFFFFFFFFFFFFFFFFF96
:101A600000B5DFF810B0DFF810A0FFF77DFD00BD76
:101A7000704700BF0000002034010020FFFFFFFF7F
:00000001FF
