:1000000080EF08F00000000000EF00F000000000AA
:0A0010000000000000000000F3D71C
:0E001C00010158B102D08B9801D08B881200E0
:0E002A00010158B102D08B9601D08B861200D6
:0E003800010158B102D08D9601D08D861200C4
:0E004600010158B102D0899401D089841200C2
:0E005400010158B102D08B9C01D08B8C1200A0
:0E006200010158B102D08B9401D08B841200A2
:0E007000010158B102D08B9A01D08B8A120088
:0E007E00010158B102D08B9E01D08B8E120072
:0E008C00010158B102D08A9201D08A8212007E
:0E009A00010158B102D08D9401D08D84120066
:0E00A800010158B102D08F9201D08F82120058
:0E00B600010158B102D08F9401D08F84120046
:0E00C400010158B102D08B9801D08B88120038
:0E00D200010158B102D08B9601D08B8612002E
:0E00E000010158B102D08A9401D08A84120026
:0E00EE00010158B102D08B9801D08B8812000E
:0E00FC00010158B102D08B9601D08B86120004
:0E010A00010158B102D08F9001D08F801200F9
:0E011800010158B102D08B9A01D08B8A1200DF
:0E012600010158B102D08B9801D08B881200D5
:0E013400010158B102D08B9601D08B861200CB
:0E014200010158B102D08B9201D08B821200C5
:0E015000010158B102D08B9A01D08B8A1200A7
:0E015E00010158B102D08D9001D08D801200A9
:10016C000F0121B302D00000FBD758C11CFF1200B5
:0E017C00ACB202D00000FCD758C1ADFF12009B
:0E018A00010158B102D08B9001D08B80120081
:0E019800010158B102D0899001D08980120077
:0E01A600010158B102D08A9001D08A80120067
:0E01B400010158B102D08D9201D08D8212004F
:0E01C200010158B102D0899801D0898812003D
:0E01D000010158B102D08B9801D08B8812002B
:0E01DE00010158B102D08B9601D08B86120021
:0E01EC00010158B102D0899201D0898212001F
:0E01FA00010158B102D08B9C01D08B8C1200F9
:0E020800010158B102D08B9E01D08B8E1200E6
:0E021600010158B102D08B9801D08B881200E4
:0E022400010158B102D08B9601D08B861200DA
:10023200F250026EF29E0500FF6A0150FE6E0050FF
:08024200FD6E02BEF28E1200F7
:10024A007C0E01013A6F010E3B6F580E3C6F010E96
:10025A003D6F660E1D6F030E1E6F000E1F6F000EA0
:10026A00206F820E226F030E236F000E246F000E82
:10027A00256F460E3E6F030E3F6F000E406F000E55
:10028A00416FAC8A900EAB6E948E949C9EAA03D05A
:08029A00AECF00F0FBD712000B
:1002A20034C1E1FF35C1E2FF56C1E9FF57C1EAFFA0
:1002B200EECFE6FF32C100F033C101F0B9DF006AD0
:0202C200120028
:1002C4006C0E01013A6F010E3B6F580E3C6F010E2C
:1002D4003D6F320E1D6F030E1E6F000E1F6F000E5A
:1002E400206F500E226F030E236F000E246F000E3A
:1002F400256F5A0E3E6F030E3F6F000E406F000EC7
:10030400416F0F01218B900E226F98849892A4AABA
:0A03140003D01DCF00F0FBD712004C
:0A031E00000E82B2010E006E120004
:0A032800000E84B0010E006E1200FA
:100332001DCF01F00F0122A302D02299228901C010
:0403420000F01200B5
:0A034600000EACB2010E006E1200B2
:0A035000000EA4BA010E006E1200A8
:0C035A00000E0F0121B3010E006E120016
:10036600AECF01F0ABA202D0AB98AB8801C000F0D3
:02037600120073
:0A037800000E80B0010E006E1200AE
:0A038200000E9EBA010E006E12007C
:0A038C00000E82B0010E006E120098
:0A039600000E82B8010E006E120086
:0A03A000000E86B4010E006E12007C
:0A03AA00000E81B4010E006E120077
:1003B40021D0CF0EAF6EAC9446DF6BD0670EAF6E1C
:1003C400AC9441DF66D0CF0EAF6EAC843CDF61D01D
:1003D400670EAF6EAC8437DF5CD0440EAF6EAC8476
:1003E40032DF57D0220EAF6EAC842DDF52D0060E12
:1003F400006E58D00101000E006E521908E1005041
:10040400511905E1120E501902E14F51C00AD1E011
:10041400000E006E521908E10050511905E1250E35
:10042400501902E14F51800AC9E0000E006E5219C2
:1004340008E10050511905E14B0E501902E14F51EA
:10044400000AC1E0000E006E521908E10050511973
:1004540005E1960E501902E14F51000AB9E0000E71
:10046400006E521908E10050511905E1E10E5019CE
:1004740002E14F51000AB1E05251000A08E1515122
:10048400010A05E15051C20A02E14F51000AAAE0F3
:10049400AED77C0E326F010E336F580E346F010EDF
:0604A400356F006A120032
:0A04AA00000E86B2010E006E120073
:1004B40021D0CF0EAF6EAC94C6DE6BD0670EAF6E9C
:1004C400AC94C1DE66D0CF0EAF6EAC84BCDE61D01E
:1004D400670EAF6EAC84B7DE5CD0440EAF6EAC84F6
:1004E400B2DE57D0220EAF6EAC84ADDE52D0060E13
:1004F400006E58D00101000E006E521908E1005040
:10050400511905E1120E501902E14F51C00AD1E010
:10051400000E006E521908E10050511905E1250E34
:10052400501902E14F51800AC9E0000E006E5219C1
:1005340008E10050511905E14B0E501902E14F51E9
:10054400000AC1E0000E006E521908E10050511972
:1005540005E1960E501902E14F51000AB9E0000E70
:10056400006E521908E10050511905E1E10E5019CD
:1005740002E14F51000AB1E05251000A08E1515121
:10058400010A05E15051C20A02E14F51000AAAE0F2
:10059400AED77C0E326F010E336F580E346F010EDE
:0605A400356F006A120031
:0A05AA00000E82B8010E006E120070
:0A05B400000E82B6010E006E120068
:0A05BE00000E82BA010E006E12005A
:0A05C800000E86B0010E006E120056
:0A05D200000E82BC010E006E120044
:1005DC0021D0CF0EAF6EAC9432DE6BD0670EAF6E07
:1005EC00AC942DDE66D0CF0EAF6EAC8428DE61D01D
:1005FC00670EAF6EAC8423DE5CD0440EAF6EAC8461
:10060C001EDE57D0220EAF6EAC8419DE52D0060E11
:10061C00006E58D00101000E006E521908E1005016
:10062C00511905E1120E501902E14F51C00AD1E0E7
:10063C00000E006E521908E10050511905E1250E0B
:10064C00501902E14F51800AC9E0000E006E521998
:10065C0008E10050511905E14B0E501902E14F51C0
:10066C00000AC1E0000E006E521908E10050511949
:10067C0005E1960E501902E14F51000AB9E0000E47
:10068C00006E521908E10050511905E1E10E5019A4
:10069C0002E14F51000AB1E05251000A08E15151F8
:1006AC00010A05E15051C20A02E14F51000AAAE0C9
:1006BC00AED77C0E326F010E336F580E346F010EB5
:0606CC00356F006A120008
:1006D20038D00F0120870D0E1F6F040E1E6F21856B
:1006E200F0DD7ED00F012087060E1F6F820E1E6F77
:1006F2002185E7DD75D00F012087030E1F6F400EA5
:100702001E6F2185DEDD6CD00F012087010E1F6F69
:10071200A00E1E6F2185D5DD63D00F012087010E4B
:100722001F6F150E1E6F2185CCDD5AD00F01208759
:100732001F6B8A0E1E6F2185C4DD52D0060E006E1D
:1007420059D0000E006E0101521908E100505119F2
:1007520005E1120E501902E14F51C00ABAE0000E33
:10076200006E521908E10050511905E1250E501989
:1007720002E14F51800AB6E0000E006E521908E104
:100782000050511905E14B0E501902E14F51000A78
:10079200B2E0000E006E521908E10050511905E155
:1007A200960E501902E14F51000AAEE0000E006EA3
:1007B200521908E10050511905E1E10E501902E108
:1007C2004F51000AAAE05251000A08E15151010AB0
:1007D20005E15051C20A02E14F51000AA7E0AED72B
:1007E20001016C0E326F010E336F580E346F010E21
:0607F200356F006A1200E1
:0A07F800000E82B8010E006E120020
:1008020059D0010150B102D0929201D092820F01CF
:10081200259376D0010150B102D0929801D09288EE
:100822006FD0010150B102D0969201D0968268D069
:10083200010150B102D0949601D0948661D0010199
:1008420050B102D0949801D094885AD0010150B18D
:1008520002D0949A01D0948A53D0010150B102D0AF
:10086200949401D094844CD0010150B102D093925F
:1008720001D0938245D0010150B102D0949E01D0A3
:10088200948E3ED0010150B102D0949C01D0948C40
:1008920037D0010150B102D0949601D0948630D065
:1008A200010150B102D0949801D0948829D0010E50
:1008B200006E28D001014F51000AA3E04F51010AF6
:1008C200A9E04F51020AADE04F51030AB1E04F5186
:1008D200040AB5E04F51050AB9E04F51060ABDE0DE
:1008E2004F51070AC1E04F51080AC5E04F51090AAA
:1008F200C9E04F510A0ACDE04F510B0AD1E0D7D7D8
:06090200000E006E120061
:100908005DD0010150B102D0929401D092840F01C0
:1009180025957AD0010150B102D0969601D09686DD
:1009280073D0010150B102D0969401D096846CD056
:10093800010150B102D0949601D0948665D001018E
:1009480050B102D0949801D094885ED0010150B182
:1009580002D0949A01D0948A57D0010150B102D0A4
:10096800989001D0988050D0010150B102D0939452
:1009780001D0938449D0010150B102D0989401D09C
:1009880098840F01239540D0010150B102D098926C
:1009980001D098820F01239337D0010150B102D0C2
:1009A800949601D0948630D0010150B102D0949829
:1009B80001D0948829D0010E006E28D001014F5132
:1009C800000A9FE04F51010AA5E04F51020AA9E031
:1009D8004F51030AADE04F51040AB1E04F51050AE7
:1009E800B5E04F51060AB9E04F51070ABDE04F5133
:1009F800080AC1E04F51090AC7E04F510A0ACDE081
:0E0A08004F510B0AD1E0D7D7000E006E12003E
:0A0A1600000E82BE010E006E1200F9
:0A0A2000000E82B6010E006E1200F7
:100A2A004FC152F150C153F10D0E0101546F0A0E1C
:100A3A00556F35D052C156F153C157F12DDC3AD01A
:100A4A0052C1E9FF53C1EAFFEE5209E052C156F121
:100A5A0053C157F121DC0101524B532BF1D72AD054
:100A6A0052C1E9FF53C1EAFFEE5209E052C156F101
:100A7A0053C157F111DC0101524B532BF1D701013C
:100A8A00540E566F010E576F07DC550E0101566F53
:100A9A00010E576F01DC0ED0060E006E0CD001015C
:100AAA005151000AC7E05151010ACAE05151020AE4
:080ABA00D7E0F2D7006A120038
:100AC20059D0010150B102D0929001D092800F0111
:100AD200259176D0010150B102D0949001D094803A
:100AE2006FD0010150B102D0969001D0968068D0AB
:100AF200010150B102D0949601D0948661D00101D7
:100B020050B102D0949801D094885AD0010150B1CA
:100B120002D0949A01D0948A53D0010150B102D0EC
:100B2200949201D094824CD0010150B102D09390A2
:100B320001D0938045D0010150B102D0949E01D0E2
:100B4200948E3ED0010150B102D0949C01D0948C7D
:100B520037D0010150B102D0949601D0948630D0A2
:100B6200010150B102D0949801D0948829D0010E8D
:100B7200006E28D001014F51000AA3E04F51010A33
:100B8200A9E04F51020AADE04F51030AB1E04F51C3
:100B9200040AB5E04F51050AB9E04F51060ABDE01B
:100BA2004F51070AC1E04F51080AC5E04F51090AE7
:100BB200C9E04F510A0ACDE04F510B0AD1E0D7D715
:060BC200000E006E12009F
:100BC8004FC1F6FF50C1F7FF51C1F8FF0900F5CF3B
:100BD80036F10900F5CF37F10900F5CF38F10900F2
:100BE800F5CF39F1080E01014F25F66E000E5021A0
:100BF800F76E000E5121F86E0900F5CF2AF10900B1
:100C0800F5CF2BF10900F5CF2CF10900F5CF2DF127
:100C1800040E4F25F66E000E5021F76E000E51217E
:100C2800F86E0900F5CF2EF10900F5CF2FF1090074
:100C3800F5CF30F10900F5CF31F1180E4F25F66EDA
:100C4800000E5021F76E000E5121F86E0900F5CF05
:100C580042F10900F5CF43F10900F5CF44F109004D
:100C6800F5CF45F11C0E4F25F66E000E5021F76E9C
:100C7800000E5121F86E0900F5CF46F10900F5CFB5
:100C880047F10900F5CF48F10900F5CF49F1120005
:0A0C9800000E82B8010E006E12007B
:0A0CA200000E80B2010E006E120079
:0A0CAC00000E82B6010E006E120069
:0A0CB600000E80B8010E006E12005F
:0A0CC000000E82B8010E006E120053
:0A0CCA00000E82B6010E006E12004B
:0A0CD400000E82BA010E006E12003D
:0A0CDE00000E81B0010E006E12003E
:0A0CE800000E82BC010E006E120027
:0A0CF200000E82BE010E006E12001B
:0A0CFC00000E84B6010E006E120017
:0A0D0600000E80B4010E006E120012
:0A0D1000000E82B8010E006E120002
:0A0D1A00000E82B6010E006E1200FA
:0A0D2400000E84B4010E006E1200F0
:0A0D2E00000E82BA010E006E1200E2
:0A0D3800000E84B2010E006E1200DE
:0A0D4200000E82B4010E006E1200D4
:0A0D4C00000E82B6010E006E1200C8
:0A0D5600000E81B2010E006E1200C3
:100D60002DD04BC14FF14CC150F14DC151F14EC18D
:100D700052F1DAEC01F030D04BC14FF14CC150F1DF
:100D80004DC151F14EC152F129DC26D04BC14FF17A
:100D90004CC150F14DC151F14EC152F19ADC1CD001
:100DA0004BC14FF14CC150F14DC151F14EC152F107
:100DB0005AEC02F011D0010E006E0ED001014A5122
:100DC000000ACFE04A51010AD7E04A51020ADEE0A8
:0A0DD0004A51100AE5E0EFD71200C7
:100DDA0015D04BC14FF14CC150F16EDE1AD04BC148
:100DEA004FF14CC150F108DD14D04BC14FF14CC149
:100DFA0050F185DD0ED0010E006E0BD001014A5173
:100E0A00000AE7E04A51010AEAE04A51020AEDE023
:040E1A00F2D71200F9
:100E1E0001014A51070803E2020E006E30D0010EA6
:100E2E004A15016E000E4AB3010E4B6F000E4AB505
:100E3E00010E4C6F38C1E1FF39C1E2FF01C0E6FF80
:100E4E0036C100F037C101F019EC01F030C1E1FFFD
:100E5E0031C1E2FF4BC1E6FF2EC100F02FC101F000
:100E6E0019EC01F048C1E1FF49C1E2FF4CC1E6FFB8
:100E7E0046C100F047C101F019EC01F0006A120002
:100E8E00A80E01014F6F000E506F020E516FC6DD9E
:100E9E001C0E01014F6F010E506F020E516FBEDD21
:100EAE00520E0B6E2B0E0C6E000E0D6E0D2EFED70F
:100EBE000C2EFCD70B2EFAD70000E50E01014F6F5A
:100ECE00000E506F020E516FA9DDA70E01014F6F7C
:0C0EDE00000E506F020E516FA1DD1200DB
:100EEA0001012951000A1AE128C126F1650E4F6F46
:100EFA00000E506F010E516F93DD260E01014F6FE8
:100F0A00010E506F010E516F8BDD570E01014F6FAD
:100F1A00000E506F020E516F83DD08D0880E01015A
:0E0F2A004F6F000E506F020E516F7ADD1200F5
:100F380001014A51010803E2010E006E0DD02CC1D7
:100F4800E1FF2DC1E2FF4AC1E6FF2AC100F02BC133
:0A0F580001F019EC01F0006A12002C
:100F62004AC14FF14BC150F14CC151F12CDE12007C
:100F720001014A6B4B6B4C6B2FDF01014A6B010E77
:100F82004B6F4C6B29DF01014A6B020E4B6F4C6BAE
:100F920023DF01014A6B060E4B6F4C6B1DDF010113
:100FA2004A6B070E4B6F4C6B17DF100E01014A6F35
:100FB200800E4B6F250E4C6F000E4D6F4E6FCFDEC5
:100FC200700E01014F6F000E506F020E516F2CDD3B
:100FD200090E0B6E1E0E0C6EE40E0D6E0D2EFED75C
:0C0FE2000C2EFCD70B2EFAD700001200DA
:100FEE000900F5CFE6FF0006FBE10106F9E112006C
:100FFE00160E01014A6F120E4B6F000E4C6FAADFD8
:10100E00110E0B6E3C0E0C6ECB0E0D6E0D2EFED712
:10101E000C2EFCD70B2EFAD7276B000E4A6F85DFEE
:10102E00030E01014A6FF4DE360E01014F6F000E02
:10103E00506F020E516FF2DC560E01014F6F000E13
:10104E00506F020E516FEADC520E0B6E2B0E0C6EB1
:10105E00000E0D6E0D2EFED70C2EFCD70B2EFAD7D2
:06106E0000000EDF12007D
:1010740022C100F023C101F019EC01F000C028F1F5
:101084000050000A3AE01DC100F01EC101F019EC45
:1010940001F000C028F100502B0A0DE1000E0101FF
:1010A4004A6F48DF150E01014F6F000E506F020E9C
:1010B400516FB9DC22D0010128512D0A0CE1010E37
:1010C4004A6F38DF260E01014F6F000E506F020E7B
:1010D400516FA9DC12D0010128516C0A02E1D5DE5E
:1010E4000CD0300E0101285D006E00C021F100C05B
:0C10F4004AF193DE00C029F1F6DE120084
:0E1100003BEC09F036DF7BDFB5DFFED7FFD713
:1012760010EE15F0080E006E020E016E0E0EF66EE2
:0E128600110EF76E000EF86EF7EC07F0120076
:10110E002A2053687574646F776E204F4646202AE6
:01111E0000D0
:10111F002A2053687574646F776E204F4E202A0013
:10112F002A2A20417564696F416D702034206973DC
:10113F0020696E697469616C697A6564202A2A0076
:01114F00009F
:0E11500020697320656E61626C6564202A0060
:0B115E002A204368616E6E656C200063
:101169002A2A2A20496E697469616C697A696E67ED
:081179002E2E2E202A2A2A0046
:101181002A2057726F6E67206368616E6E656C20EE
:0F11910069732073656C656374656421202A009F
:0111A000004E
:1011A1002A2A205072657373202D20746F20747564
:1011B100726E2053687574646F776E204F4E2C20C9
:1011C1006F72202B20746F207475726E20536875B6
:0D11D10074646F776E204F4646202A2A0076
:1011DE002A2A205475726E204F4E20746865206442
:1011EE0065736972656420766F6C756D65206368D2
:1011FE00616E6E656C202866726F6D203020746F84
:07120E00203729202A2A00E5
:0112150000D8
:10121600980158018A0158015E01580134015801AC
:10122600260158015001580142015801A6015801F2
:1012360008025801FA015801240258011602580101
:10124600780300008C030000280300004C0D00000A
:1012560096030000D40C00001E030000DE0C000004
:10126600F20C0000E80C0000AC0C0000980C00002A
:020000040030CA
:0E00000015137F7CF98B91FFFFC0FFE0FF40DE
:00000001FF
